{
  "contractName": "CoveredCallFinancialProductLibrary",
  "abi": [
    {
      "anonymous": false,
      "inputs": [
        {
          "indexed": true,
          "internalType": "address",
          "name": "previousOwner",
          "type": "address"
        },
        {
          "indexed": true,
          "internalType": "address",
          "name": "newOwner",
          "type": "address"
        }
      ],
      "name": "OwnershipTransferred",
      "type": "event"
    },
    {
      "inputs": [],
      "name": "owner",
      "outputs": [
        {
          "internalType": "address",
          "name": "",
          "type": "address"
        }
      ],
      "stateMutability": "view",
      "type": "function"
    },
    {
      "inputs": [],
      "name": "renounceOwnership",
      "outputs": [],
      "stateMutability": "nonpayable",
      "type": "function"
    },
    {
      "inputs": [
        {
          "internalType": "address",
          "name": "newOwner",
          "type": "address"
        }
      ],
      "name": "transferOwnership",
      "outputs": [],
      "stateMutability": "nonpayable",
      "type": "function"
    },
    {
      "inputs": [
        {
          "internalType": "bytes32",
          "name": "priceIdentifier",
          "type": "bytes32"
        },
        {
          "internalType": "uint256",
          "name": "requestTime",
          "type": "uint256"
        }
      ],
      "name": "transformPriceIdentifier",
      "outputs": [
        {
          "internalType": "bytes32",
          "name": "",
          "type": "bytes32"
        }
      ],
      "stateMutability": "view",
      "type": "function"
    },
    {
      "inputs": [
        {
          "internalType": "address",
          "name": "financialProduct",
          "type": "address"
        },
        {
          "components": [
            {
              "internalType": "uint256",
              "name": "rawValue",
              "type": "uint256"
            }
          ],
          "internalType": "struct FixedPoint.Unsigned",
          "name": "strikePrice",
          "type": "tuple"
        }
      ],
      "name": "setFinancialProductStrike",
      "outputs": [],
      "stateMutability": "nonpayable",
      "type": "function"
    },
    {
      "inputs": [
        {
          "internalType": "address",
          "name": "financialProduct",
          "type": "address"
        }
      ],
      "name": "getStrikeForFinancialProduct",
      "outputs": [
        {
          "components": [
            {
              "internalType": "uint256",
              "name": "rawValue",
              "type": "uint256"
            }
          ],
          "internalType": "struct FixedPoint.Unsigned",
          "name": "",
          "type": "tuple"
        }
      ],
      "stateMutability": "view",
      "type": "function"
    },
    {
      "inputs": [
        {
          "components": [
            {
              "internalType": "uint256",
              "name": "rawValue",
              "type": "uint256"
            }
          ],
          "internalType": "struct FixedPoint.Unsigned",
          "name": "oraclePrice",
          "type": "tuple"
        },
        {
          "internalType": "uint256",
          "name": "requestTime",
          "type": "uint256"
        }
      ],
      "name": "transformPrice",
      "outputs": [
        {
          "components": [
            {
              "internalType": "uint256",
              "name": "rawValue",
              "type": "uint256"
            }
          ],
          "internalType": "struct FixedPoint.Unsigned",
          "name": "",
          "type": "tuple"
        }
      ],
      "stateMutability": "view",
      "type": "function"
    },
    {
      "inputs": [
        {
          "components": [
            {
              "internalType": "uint256",
              "name": "rawValue",
              "type": "uint256"
            }
          ],
          "internalType": "struct FixedPoint.Unsigned",
          "name": "oraclePrice",
          "type": "tuple"
        },
        {
          "components": [
            {
              "internalType": "uint256",
              "name": "rawValue",
              "type": "uint256"
            }
          ],
          "internalType": "struct FixedPoint.Unsigned",
          "name": "collateralRequirement",
          "type": "tuple"
        }
      ],
      "name": "transformCollateralRequirement",
      "outputs": [
        {
          "components": [
            {
              "internalType": "uint256",
              "name": "rawValue",
              "type": "uint256"
            }
          ],
          "internalType": "struct FixedPoint.Unsigned",
          "name": "",
          "type": "tuple"
        }
      ],
      "stateMutability": "view",
      "type": "function"
    }
  ],
  "bytecode": "0x608060405234801561001057600080fd5b50600061001b61007d565b600080546001600160a01b0319166001600160a01b0383169081178255604051929350917f8be0079c531659141344cd1fd0a4f28419497f9722a3daafe3b4186f6b6457e0908290a3506000805460ff60a01b1916600160a01b179055610081565b3390565b610b90806100906000396000f3fe608060405234801561001057600080fd5b50600436106100885760003560e01c80638da5cb5b1161005b5780638da5cb5b146100e6578063a94ec3b0146100fb578063f19371b71461010e578063f2fde38b1461012e57610088565b80630ff49b901461008d5780632a312637146100b65780633a0acab5146100c9578063715018a6146100dc575b600080fd5b6100a061009b3660046108f8565b610141565b6040516100ad9190610b50565b60405180910390f35b6100a06100c43660046108dc565b610265565b6100a06100d7366004610854565b6102d5565b6100e4610310565b005b6100ee61038f565b6040516100ad919061093a565b6100e461010936600461087b565b61039e565b61012161011c3660046108bb565b61050a565b6040516100ad919061094e565b6100e461013c366004610854565b61050e565b610149610804565b6101516105c4565b610159610804565b503360009081526001602090815260408083208151928301909152548152906101839082906105ef565b6101a85760405162461bcd60e51b815260040161019f90610a1e565b60405180910390fd5b336001600160a01b0316639f43ddd26040518163ffffffff1660e01b815260040160206040518083038186803b1580156101e157600080fd5b505afa1580156101f5573d6000803e3d6000fd5b505050506040513d601f19601f820116820180604052508101906102199190610922565b8310156102325761022a6001610606565b91505061025f565b61023c8482610634565b1561024b5761022a6000610606565b61022a84610259818461063c565b90610668565b92915050565b61026d610804565b6102756105c4565b61027d610804565b503360009081526001602090815260408083208151928301909152548152906102a79082906105ef565b6102c35760405162461bcd60e51b815260040161019f90610a1e565b6102cd6001610606565b949350505050565b6102dd610804565b6102e56105c4565b506001600160a01b031660009081526001602090815260409182902082519182019092529054815290565b61031861069d565b6000546001600160a01b039081169116146103455760405162461bcd60e51b815260040161019f90610ab9565b600080546040516001600160a01b03909116907f8be0079c531659141344cd1fd0a4f28419497f9722a3daafe3b4186f6b6457e0908390a3600080546001600160a01b0319169055565b6000546001600160a01b031690565b6103a661069d565b6000546001600160a01b039081169116146103d35760405162461bcd60e51b815260040161019f90610ab9565b6103db6105c4565b6103e36106a1565b6103ee8160006105ef565b61040a5760405162461bcd60e51b815260040161019f90610aee565b6001600160a01b03821660009081526001602090815260408083208151928301909152548152610439916106b0565b6104555760405162461bcd60e51b815260040161019f90610a4c565b816001600160a01b0316639f43ddd26040518163ffffffff1660e01b815260040160206040518083038186803b15801561048e57600080fd5b505afa1580156104a2573d6000803e3d6000fd5b505050506040513d601f19601f820116820180604052508101906104c69190610922565b6104e25760405162461bcd60e51b815260040161019f906109f0565b6001600160a01b0382166000908152600160205260409020815190556105066106c7565b5050565b5090565b61051661069d565b6000546001600160a01b039081169116146105435760405162461bcd60e51b815260040161019f90610ab9565b6001600160a01b0381166105695760405162461bcd60e51b815260040161019f906109aa565b600080546040516001600160a01b03808516939216917f8be0079c531659141344cd1fd0a4f28419497f9722a3daafe3b4186f6b6457e091a3600080546001600160a01b0319166001600160a01b0392909216919091179055565b600054600160a01b900460ff166105ed5760405162461bcd60e51b815260040161019f90610b19565b565b60006105fa82610606565b51835111905092915050565b61060e610804565b60408051602081019091528061062c84670de0b6b3a76400006106dc565b905292915050565b519051111590565b610644610804565b604080516020810190915282518451829161065f919061071d565b90529392505050565b610670610804565b604080516020810190915282518451829161065f9161069790670de0b6b3a76400006106dc565b9061075f565b3390565b6000805460ff60a01b19169055565b60006106bb82610606565b51835114905092915050565b6000805460ff60a01b1916600160a01b179055565b6000826106eb5750600061025f565b828202828482816106f857fe5b04146107165760405162461bcd60e51b815260040161019f90610a78565b9392505050565b600061071683836040518060400160405280601e81526020017f536166654d6174683a207375627472616374696f6e206f766572666c6f7700008152506107a1565b600061071683836040518060400160405280601a81526020017f536166654d6174683a206469766973696f6e206279207a65726f0000000000008152506107cd565b600081848411156107c55760405162461bcd60e51b815260040161019f9190610957565b505050900390565b600081836107ee5760405162461bcd60e51b815260040161019f9190610957565b5060008385816107fa57fe5b0495945050505050565b6040518060200160405280600081525090565b600060208284031215610828578081fd5b6040516020810181811067ffffffffffffffff82111715610847578283fd5b6040529135825250919050565b600060208284031215610865578081fd5b81356001600160a01b0381168114610716578182fd5b6000806040838503121561088d578081fd5b82356001600160a01b03811681146108a3578182fd5b91506108b28460208501610817565b90509250929050565b600080604083850312156108cd578182fd5b50508035926020909101359150565b600080604083850312156108ee578182fd5b6108a38484610817565b6000806040838503121561090a578182fd5b6109148484610817565b946020939093013593505050565b600060208284031215610933578081fd5b5051919050565b6001600160a01b0391909116815260200190565b90815260200190565b6000602080835283518082850152825b8181101561098357858101830151858201604001528201610967565b818111156109945783604083870101525b50601f01601f1916929092016040019392505050565b60208082526026908201527f4f776e61626c653a206e6577206f776e657220697320746865207a65726f206160408201526564647265737360d01b606082015260800190565b602080825260149082015273125b9d985b1a59081153540818dbdb9d1c9858dd60621b604082015260600190565b60208082526014908201527343616c6c657220686173206e6f20737472696b6560601b604082015260600190565b60208082526012908201527114dd1c9a5ad948185b1c9958591e481cd95d60721b604082015260600190565b60208082526021908201527f536166654d6174683a206d756c7469706c69636174696f6e206f766572666c6f6040820152607760f81b606082015260800190565b6020808252818101527f4f776e61626c653a2063616c6c6572206973206e6f7420746865206f776e6572604082015260600190565b60208082526011908201527043616e7420736574203020737472696b6560781b604082015260600190565b6020808252601f908201527f5265656e7472616e637947756172643a207265656e7472616e742063616c6c00604082015260600190565b905181526020019056fea26469706673582212202529995ce91bb1d38be7fcd6ed19d918e02314c00008c0fff5373db3963451ef64736f6c634300060c0033",
  "immutableReferences": {},
  "source": "pragma solidity ^0.6.0;\npragma experimental ABIEncoderV2;\nimport \"./FinancialProductLibrary.sol\";\nimport \"@openzeppelin/contracts/access/Ownable.sol\";\nimport \"../../../common/implementation/Lockable.sol\";\n\n/**\n * @title CoveredCall Financial Product Library\n * @notice Adds custom price transformation logic to modify the behavior of the expiring multi party contract. The\n * contract holds say 1 WETH in collateral and pays out a portion of that, at expiry, if ETHUSD is above a set strike. If\n * ETHUSD is below that strike, the contract pays out 0. The fraction paid out if above the strike is defined by\n * (oraclePrice - strikePrice) / oraclePrice;\n * Example: expiry is DEC 31. Strike is $400. Each token is backed by 1 WETH.\n * If ETHUSD = $600 at expiry, the call is $200 in the money, and the contract pays out 0.333 WETH (worth $200).\n * If ETHUSD = $800 at expiry, the call is $400 in the money, and the contract pays out 0.5 WETH (worth $400).\n * If ETHUSD =< $400 at expiry, the call is out of the money, and the contract pays out 0 WETH.\n */\ncontract CoveredCallFinancialProductLibrary is FinancialProductLibrary, Ownable, Lockable {\n    mapping(address => FixedPoint.Unsigned) private financialProductStrikes;\n\n    /**\n     * @notice Enables the deployer of the library to set the strike price for an associated financial product.\n     * @param financialProduct address of the financial product.\n     * @param strikePrice the strike price for the covered call to be applied to the financial product.\n     * @dev Note: a) Only the owner (deployer) of this library can set new strike prices b) A strike price cannot be 0.\n     * c) A strike price can only be set once to prevent the deployer from changing the strike after the fact.\n     * d)  financialProduct must exposes an expirationTimestamp method.\n     */\n    function setFinancialProductStrike(address financialProduct, FixedPoint.Unsigned memory strikePrice)\n        public\n        onlyOwner\n        nonReentrant()\n    {\n        require(strikePrice.isGreaterThan(0), \"Cant set 0 strike\");\n        require(financialProductStrikes[financialProduct].isEqual(0), \"Strike already set\");\n        require(ExpiringContractInterface(financialProduct).expirationTimestamp() != 0, \"Invalid EMP contract\");\n        financialProductStrikes[financialProduct] = strikePrice;\n    }\n\n    /**\n     * @notice Returns the strike price associated with a given financial product address.\n     * @param financialProduct address of the financial product.\n     * @return strikePrice for the associated financial product.\n     */\n    function getStrikeForFinancialProduct(address financialProduct)\n        public\n        view\n        nonReentrantView()\n        returns (FixedPoint.Unsigned memory)\n    {\n        return financialProductStrikes[financialProduct];\n    }\n\n    /**\n     * @notice Returns a transformed price by applying the call option payout structure.\n     * @param oraclePrice price from the oracle to be transformed.\n     * @param requestTime timestamp the oraclePrice was requested at.\n     * @return transformedPrice the input oracle price with the price transformation logic applied to it.\n     */\n    function transformPrice(FixedPoint.Unsigned memory oraclePrice, uint256 requestTime)\n        public\n        view\n        override\n        nonReentrantView()\n        returns (FixedPoint.Unsigned memory)\n    {\n        FixedPoint.Unsigned memory strike = financialProductStrikes[msg.sender];\n        require(strike.isGreaterThan(0), \"Caller has no strike\");\n        // If price request is made before expiry, return 1. Thus we can keep the contract 100% collateralized with\n        // each token backed 1:1 by collateral currency.\n        if (requestTime < ExpiringContractInterface(msg.sender).expirationTimestamp()) {\n            return FixedPoint.fromUnscaledUint(1);\n        }\n        if (oraclePrice.isLessThanOrEqual(strike)) {\n            return FixedPoint.fromUnscaledUint(0);\n        } else {\n            // Token expires to be worth the fraction of an collateral token that's in the money.\n            // eg if ETHUSD is $500 and strike is $400, token is redeemable for 100/500 = 0.2 WETH (worth $100).\n            // Note: oraclePrice cannot be 0 here because it would always satisfy the if above because 0 <= x is always\n            // true.\n            return (oraclePrice.sub(strike)).div(oraclePrice);\n        }\n    }\n\n    /**\n     * @notice Returns a transformed collateral requirement by applying the cover call payout structure.\n     * @param oraclePrice price from the oracle to transform the collateral requirement.\n     * @param collateralRequirement financial products collateral requirement to be scaled according to price and strike.\n     * @return transformedCollateralRequirement the input collateral requirement with the transformation logic applied to it.\n     */\n    function transformCollateralRequirement(\n        FixedPoint.Unsigned memory oraclePrice,\n        FixedPoint.Unsigned memory collateralRequirement\n    ) public view override nonReentrantView() returns (FixedPoint.Unsigned memory) {\n        FixedPoint.Unsigned memory strike = financialProductStrikes[msg.sender];\n        require(strike.isGreaterThan(0), \"Caller has no strike\");\n\n        // Always return 1 because option must be collateralized by 1 token.\n        return FixedPoint.fromUnscaledUint(1);\n    }\n}\n",
  "sourcePath": "/home/circleci/protocol/packages/core/contracts/financial-templates/common/financial-product-libraries/CoveredCallFinancialProductLibrary.sol",
  "compiler": {
    "name": "solc",
    "version": "0.6.12+commit.27d51765.Emscripten.clang"
  },
  "schemaVersion": "3.2.3",
  "updatedAt": "2021-03-16T08:13:26.692Z",
  "devdoc": {
    "kind": "dev",
    "methods": {
      "getStrikeForFinancialProduct(address)": {
        "params": {
          "financialProduct": "address of the financial product."
        },
        "returns": {
          "_0": "strikePrice for the associated financial product."
        }
      },
      "owner()": {
        "details": "Returns the address of the current owner."
      },
      "renounceOwnership()": {
        "details": "Leaves the contract without owner. It will not be possible to call `onlyOwner` functions anymore. Can only be called by the current owner. NOTE: Renouncing ownership will leave the contract without an owner, thereby removing any functionality that is only available to the owner."
      },
      "setFinancialProductStrike(address,(uint256))": {
        "details": "Note: a) Only the owner (deployer) of this library can set new strike prices b) A strike price cannot be 0. c) A strike price can only be set once to prevent the deployer from changing the strike after the fact. d)  financialProduct must exposes an expirationTimestamp method.",
        "params": {
          "financialProduct": "address of the financial product.",
          "strikePrice": "the strike price for the covered call to be applied to the financial product."
        }
      },
      "transferOwnership(address)": {
        "details": "Transfers ownership of the contract to a new account (`newOwner`). Can only be called by the current owner."
      },
      "transformCollateralRequirement((uint256),(uint256))": {
        "params": {
          "collateralRequirement": "financial products collateral requirement to be scaled according to price and strike.",
          "oraclePrice": "price from the oracle to transform the collateral requirement."
        },
        "returns": {
          "_0": "transformedCollateralRequirement the input collateral requirement with the transformation logic applied to it."
        }
      },
      "transformPrice((uint256),uint256)": {
        "params": {
          "oraclePrice": "price from the oracle to be transformed.",
          "requestTime": "timestamp the oraclePrice was requested at."
        },
        "returns": {
          "_0": "transformedPrice the input oracle price with the price transformation logic applied to it."
        }
      },
      "transformPriceIdentifier(bytes32,uint256)": {
        "params": {
          "priceIdentifier": "input price identifier defined for the financial contract.",
          "requestTime": "timestamp the identifier is to be used at. EG the time that a price request would be sent using this identifier."
        },
        "returns": {
          "_0": "transformedPriceIdentifier input price identifier with the transformation function applied."
        }
      }
    },
    "title": "CoveredCall Financial Product Library",
    "version": 1
  },
  "userdoc": {
    "kind": "user",
    "methods": {
      "getStrikeForFinancialProduct(address)": {
        "notice": "Returns the strike price associated with a given financial product address."
      },
      "setFinancialProductStrike(address,(uint256))": {
        "notice": "Enables the deployer of the library to set the strike price for an associated financial product."
      },
      "transformCollateralRequirement((uint256),(uint256))": {
        "notice": "Returns a transformed collateral requirement by applying the cover call payout structure."
      },
      "transformPrice((uint256),uint256)": {
        "notice": "Returns a transformed price by applying the call option payout structure."
      },
      "transformPriceIdentifier(bytes32,uint256)": {
        "notice": "Transforms a given price identifier using the financial product libraries transformation logic."
      }
    },
    "notice": "Adds custom price transformation logic to modify the behavior of the expiring multi party contract. The contract holds say 1 WETH in collateral and pays out a portion of that, at expiry, if ETHUSD is above a set strike. If ETHUSD is below that strike, the contract pays out 0. The fraction paid out if above the strike is defined by (oraclePrice - strikePrice) / oraclePrice; Example: expiry is DEC 31. Strike is $400. Each token is backed by 1 WETH. If ETHUSD = $600 at expiry, the call is $200 in the money, and the contract pays out 0.333 WETH (worth $200). If ETHUSD = $800 at expiry, the call is $400 in the money, and the contract pays out 0.5 WETH (worth $400). If ETHUSD =< $400 at expiry, the call is out of the money, and the contract pays out 0 WETH.",
    "version": 1
  }
}